{
  "contractName": "Land",
  "abi": [
    {
      "inputs": [],
      "stateMutability": "nonpayable",
      "type": "constructor"
    },
    {
      "anonymous": false,
      "inputs": [
        {
          "indexed": true,
          "internalType": "uint256",
          "name": "landId",
          "type": "uint256"
        }
      ],
      "name": "LandAdded",
      "type": "event"
    },
    {
      "anonymous": false,
      "inputs": [
        {
          "indexed": true,
          "internalType": "uint256",
          "name": "landId",
          "type": "uint256"
        }
      ],
      "name": "LandForSale",
      "type": "event"
    },
    {
      "anonymous": false,
      "inputs": [
        {
          "indexed": false,
          "internalType": "uint256",
          "name": "landId",
          "type": "uint256"
        }
      ],
      "name": "LandRemovedFromSale",
      "type": "event"
    },
    {
      "anonymous": false,
      "inputs": [
        {
          "indexed": true,
          "internalType": "uint256",
          "name": "landId",
          "type": "uint256"
        },
        {
          "indexed": true,
          "internalType": "address",
          "name": "buyer",
          "type": "address"
        },
        {
          "indexed": true,
          "internalType": "address",
          "name": "seller",
          "type": "address"
        }
      ],
      "name": "LandSold",
      "type": "event"
    },
    {
      "anonymous": false,
      "inputs": [
        {
          "indexed": true,
          "internalType": "uint256",
          "name": "landId",
          "type": "uint256"
        }
      ],
      "name": "LandVerified",
      "type": "event"
    },
    {
      "anonymous": false,
      "inputs": [
        {
          "indexed": true,
          "internalType": "address",
          "name": "user",
          "type": "address"
        }
      ],
      "name": "UserRegistered",
      "type": "event"
    },
    {
      "anonymous": false,
      "inputs": [
        {
          "indexed": true,
          "internalType": "address",
          "name": "user",
          "type": "address"
        }
      ],
      "name": "UserVerified",
      "type": "event"
    },
    {
      "inputs": [
        {
          "internalType": "uint256",
          "name": "",
          "type": "uint256"
        }
      ],
      "name": "landOwner",
      "outputs": [
        {
          "internalType": "address",
          "name": "",
          "type": "address"
        }
      ],
      "stateMutability": "view",
      "type": "function",
      "constant": true
    },
    {
      "inputs": [
        {
          "internalType": "uint256",
          "name": "",
          "type": "uint256"
        },
        {
          "internalType": "uint256",
          "name": "",
          "type": "uint256"
        }
      ],
      "name": "landOwnershipHistory",
      "outputs": [
        {
          "internalType": "address",
          "name": "",
          "type": "address"
        }
      ],
      "stateMutability": "view",
      "type": "function",
      "constant": true
    },
    {
      "inputs": [],
      "name": "landRegistrar",
      "outputs": [
        {
          "internalType": "address",
          "name": "",
          "type": "address"
        }
      ],
      "stateMutability": "view",
      "type": "function",
      "constant": true
    },
    {
      "inputs": [
        {
          "internalType": "uint256",
          "name": "",
          "type": "uint256"
        }
      ],
      "name": "lands",
      "outputs": [
        {
          "internalType": "uint256",
          "name": "id",
          "type": "uint256"
        },
        {
          "internalType": "uint256",
          "name": "area",
          "type": "uint256"
        },
        {
          "internalType": "string",
          "name": "city",
          "type": "string"
        },
        {
          "internalType": "string",
          "name": "state",
          "type": "string"
        },
        {
          "internalType": "uint256",
          "name": "landPrice",
          "type": "uint256"
        },
        {
          "internalType": "uint256",
          "name": "propertyPID",
          "type": "uint256"
        },
        {
          "internalType": "uint256",
          "name": "physicalSurveyNumber",
          "type": "uint256"
        },
        {
          "internalType": "string",
          "name": "ipfsHash",
          "type": "string"
        },
        {
          "internalType": "string",
          "name": "document",
          "type": "string"
        },
        {
          "internalType": "bool",
          "name": "isVerified",
          "type": "bool"
        },
        {
          "internalType": "bool",
          "name": "isForSale",
          "type": "bool"
        }
      ],
      "stateMutability": "view",
      "type": "function",
      "constant": true
    },
    {
      "inputs": [],
      "name": "landsCount",
      "outputs": [
        {
          "internalType": "uint256",
          "name": "",
          "type": "uint256"
        }
      ],
      "stateMutability": "view",
      "type": "function",
      "constant": true
    },
    {
      "inputs": [
        {
          "internalType": "address",
          "name": "",
          "type": "address"
        },
        {
          "internalType": "uint256",
          "name": "",
          "type": "uint256"
        }
      ],
      "name": "userOwnedLands",
      "outputs": [
        {
          "internalType": "uint256",
          "name": "",
          "type": "uint256"
        }
      ],
      "stateMutability": "view",
      "type": "function",
      "constant": true
    },
    {
      "inputs": [
        {
          "internalType": "address",
          "name": "",
          "type": "address"
        }
      ],
      "name": "users",
      "outputs": [
        {
          "internalType": "string",
          "name": "name",
          "type": "string"
        },
        {
          "internalType": "uint256",
          "name": "age",
          "type": "uint256"
        },
        {
          "internalType": "string",
          "name": "city",
          "type": "string"
        },
        {
          "internalType": "string",
          "name": "aadharNumber",
          "type": "string"
        },
        {
          "internalType": "string",
          "name": "panNumber",
          "type": "string"
        },
        {
          "internalType": "string",
          "name": "document",
          "type": "string"
        },
        {
          "internalType": "string",
          "name": "email",
          "type": "string"
        },
        {
          "internalType": "bool",
          "name": "isVerified",
          "type": "bool"
        }
      ],
      "stateMutability": "view",
      "type": "function",
      "constant": true
    },
    {
      "inputs": [
        {
          "internalType": "string",
          "name": "_name",
          "type": "string"
        },
        {
          "internalType": "uint256",
          "name": "_age",
          "type": "uint256"
        },
        {
          "internalType": "string",
          "name": "_city",
          "type": "string"
        },
        {
          "internalType": "string",
          "name": "_aadharNumber",
          "type": "string"
        },
        {
          "internalType": "string",
          "name": "_panNumber",
          "type": "string"
        },
        {
          "internalType": "string",
          "name": "_document",
          "type": "string"
        },
        {
          "internalType": "string",
          "name": "_email",
          "type": "string"
        }
      ],
      "name": "registerUser",
      "outputs": [],
      "stateMutability": "nonpayable",
      "type": "function"
    },
    {
      "inputs": [
        {
          "internalType": "address",
          "name": "_user",
          "type": "address"
        }
      ],
      "name": "verifyUser",
      "outputs": [],
      "stateMutability": "nonpayable",
      "type": "function"
    },
    {
      "inputs": [
        {
          "internalType": "address",
          "name": "_user",
          "type": "address"
        }
      ],
      "name": "unverifyUser",
      "outputs": [],
      "stateMutability": "nonpayable",
      "type": "function"
    },
    {
      "inputs": [
        {
          "internalType": "uint256",
          "name": "_landId",
          "type": "uint256"
        }
      ],
      "name": "unverifyLand",
      "outputs": [],
      "stateMutability": "nonpayable",
      "type": "function"
    },
    {
      "inputs": [
        {
          "internalType": "uint256",
          "name": "_area",
          "type": "uint256"
        },
        {
          "internalType": "string",
          "name": "_city",
          "type": "string"
        },
        {
          "internalType": "string",
          "name": "_state",
          "type": "string"
        },
        {
          "internalType": "uint256",
          "name": "_landPrice",
          "type": "uint256"
        },
        {
          "internalType": "uint256",
          "name": "_propertyPID",
          "type": "uint256"
        },
        {
          "internalType": "uint256",
          "name": "_physicalSurveyNumber",
          "type": "uint256"
        },
        {
          "internalType": "string",
          "name": "_ipfsHash",
          "type": "string"
        },
        {
          "internalType": "string",
          "name": "_document",
          "type": "string"
        }
      ],
      "name": "addLand",
      "outputs": [],
      "stateMutability": "nonpayable",
      "type": "function"
    },
    {
      "inputs": [
        {
          "internalType": "uint256",
          "name": "_landId",
          "type": "uint256"
        }
      ],
      "name": "verifyLand",
      "outputs": [],
      "stateMutability": "nonpayable",
      "type": "function"
    },
    {
      "inputs": [
        {
          "internalType": "address[]",
          "name": "_users",
          "type": "address[]"
        }
      ],
      "name": "batchVerifyUsers",
      "outputs": [],
      "stateMutability": "nonpayable",
      "type": "function"
    },
    {
      "inputs": [
        {
          "internalType": "address[]",
          "name": "_users",
          "type": "address[]"
        }
      ],
      "name": "batchUnverifyUsers",
      "outputs": [],
      "stateMutability": "nonpayable",
      "type": "function"
    },
    {
      "inputs": [
        {
          "internalType": "uint256[]",
          "name": "_landIds",
          "type": "uint256[]"
        }
      ],
      "name": "batchVerifyLands",
      "outputs": [],
      "stateMutability": "nonpayable",
      "type": "function"
    },
    {
      "inputs": [
        {
          "internalType": "uint256[]",
          "name": "_landIds",
          "type": "uint256[]"
        }
      ],
      "name": "batchUnverifyLands",
      "outputs": [],
      "stateMutability": "nonpayable",
      "type": "function"
    },
    {
      "inputs": [
        {
          "internalType": "uint256",
          "name": "_landId",
          "type": "uint256"
        }
      ],
      "name": "putLandForSale",
      "outputs": [],
      "stateMutability": "nonpayable",
      "type": "function"
    },
    {
      "inputs": [
        {
          "internalType": "uint256",
          "name": "_landId",
          "type": "uint256"
        }
      ],
      "name": "removeLandFromSale",
      "outputs": [],
      "stateMutability": "nonpayable",
      "type": "function"
    },
    {
      "inputs": [
        {
          "internalType": "uint256",
          "name": "_landId",
          "type": "uint256"
        }
      ],
      "name": "buyLand",
      "outputs": [],
      "stateMutability": "payable",
      "type": "function",
      "payable": true
    },
    {
      "inputs": [],
      "name": "getLandsForSale",
      "outputs": [
        {
          "internalType": "uint256[]",
          "name": "",
          "type": "uint256[]"
        }
      ],
      "stateMutability": "view",
      "type": "function",
      "constant": true
    },
    {
      "inputs": [
        {
          "internalType": "address",
          "name": "_user",
          "type": "address"
        }
      ],
      "name": "getLandsOwnedByUser",
      "outputs": [
        {
          "internalType": "uint256[]",
          "name": "",
          "type": "uint256[]"
        }
      ],
      "stateMutability": "view",
      "type": "function",
      "constant": true
    },
    {
      "inputs": [
        {
          "internalType": "uint256",
          "name": "_landId",
          "type": "uint256"
        },
        {
          "internalType": "uint256[]",
          "name": "_areas",
          "type": "uint256[]"
        },
        {
          "internalType": "uint256[]",
          "name": "_prices",
          "type": "uint256[]"
        }
      ],
      "name": "subdivideLand",
      "outputs": [],
      "stateMutability": "nonpayable",
      "type": "function"
    },
    {
      "inputs": [
        {
          "internalType": "uint256[]",
          "name": "_landIds",
          "type": "uint256[]"
        },
        {
          "internalType": "uint256",
          "name": "_newLandPrice",
          "type": "uint256"
        }
      ],
      "name": "mergeLands",
      "outputs": [],
      "stateMutability": "nonpayable",
      "type": "function"
    },
    {
      "inputs": [
        {
          "internalType": "uint256",
          "name": "_landId",
          "type": "uint256"
        }
      ],
      "name": "getOwnershipHistory",
      "outputs": [
        {
          "internalType": "address[]",
          "name": "",
          "type": "address[]"
        }
      ],
      "stateMutability": "view",
      "type": "function",
      "constant": true
    },
    {
      "inputs": [
        {
          "internalType": "uint256",
          "name": "_landId",
          "type": "uint256"
        }
      ],
      "name": "getCurrentOwner",
      "outputs": [
        {
          "internalType": "address",
          "name": "",
          "type": "address"
        }
      ],
      "stateMutability": "view",
      "type": "function",
      "constant": true
    }
  ],
  "bytecode": "0x60806040523480156200001157600080fd5b50336000806101000a81548173ffffffffffffffffffffffffffffffffffffffff021916908373ffffffffffffffffffffffffffffffffffffffff1602179055506040518061010001604052806040518060400160405280600981526020017f52656769737472617200000000000000000000000000000000000000000000008152508152602001603381526020016040518060400160405280600981526020017f42656e67616c757275000000000000000000000000000000000000000000000081525081526020016040518060400160405280600681526020017f313131313131000000000000000000000000000000000000000000000000000081525081526020016040518060400160405280600781526020017f313231326431580000000000000000000000000000000000000000000000000081525081526020016040518060400160405280600681526020017f486173686564000000000000000000000000000000000000000000000000000081525081526020016040518060400160405280601381526020017f72656769737472617240676d61696c2e636f6d00000000000000000000000000815250815260200160011515815250600260003373ffffffffffffffffffffffffffffffffffffffff1673ffffffffffffffffffffffffffffffffffffffff16815260200190815260200160002060008201518160000190805190602001906200022b92919062000380565b506020820151816001015560408201518160020190805190602001906200025492919062000380565b5060608201518160030190805190602001906200027392919062000380565b5060808201518160040190805190602001906200029292919062000380565b5060a0820151816005019080519060200190620002b192919062000380565b5060c0820151816006019080519060200190620002d092919062000380565b5060e08201518160070160006101000a81548160ff0219169083151502179055509050503373ffffffffffffffffffffffffffffffffffffffff167f54db7a5cb4735e1aac1f53db512d3390390bb6637bd30ad4bf9fc98667d9b9b960405160405180910390a23373ffffffffffffffffffffffffffffffffffffffff167fa6625d2d26e786e2f473111bea4b2fcdbbf1863d883a2359989ce3a103d2972a60405160405180910390a262000495565b8280546200038e9062000430565b90600052602060002090601f016020900481019282620003b25760008555620003fe565b82601f10620003cd57805160ff1916838001178555620003fe565b82800160010185558215620003fe579182015b82811115620003fd578251825591602001919060010190620003e0565b5b5090506200040d919062000411565b5090565b5b808211156200042c57600081600090555060010162000412565b5090565b600060028204905060018216806200044957607f821691505b6020821081141562000460576200045f62000466565b5b50919050565b7f4e487b7100000000000000000000000000000000000000000000000000000000600052602260045260246000fd5b615c3880620004a56000396000f3fe6080604052600436106101815760003560e01c806389e0c16b116100d1578063e261f1e51161008a578063edfbe24711610064578063edfbe247146105a0578063f1dbaccb146105c9578063f6c1b99214610606578063f9c43bdf1461063157610181565b8063e261f1e5146104f3578063e530c4001461053a578063e6ba28591461056357610181565b806389e0c16b146103ef5780639932472814610418578063a87430ba14610441578063c463333414610485578063ce171858146104ae578063ced39558146104d757610181565b80634d8131201161013e5780636931e392116101185780636931e392146103375780637ace341b146103605780637b12a98e1461039d5780637f092fa9146103c657610181565b80634d813120146102a85780634dcb280e146102d157806358729ba71461030e57610181565b80631c9afd0f1461018657806324e424b6146101b15780633220f555146101da578063388b4ffd146102055780634bb331d11461022e5780634d058d5a1461026b575b600080fd5b34801561019257600080fd5b5061019b61065a565b6040516101a8919061575e565b60405180910390f35b3480156101bd57600080fd5b506101d860048036038101906101d39190614971565b610660565b005b3480156101e657600080fd5b506101ef610783565b6040516101fc91906153b7565b60405180910390f35b34801561021157600080fd5b5061022c600480360381019061022791906147ae565b6107a7565b005b34801561023a57600080fd5b5061025560048036038101906102509190614708565b610a02565b60405161026291906153f4565b60405180910390f35b34801561027757600080fd5b50610292600480360381019061028d9190614731565b610a99565b60405161029f919061575e565b60405180910390f35b3480156102b457600080fd5b506102cf60048036038101906102ca9190614708565b610aca565b005b3480156102dd57600080fd5b506102f860048036038101906102f39190614971565b610d1a565b60405161030591906153b7565b60405180910390f35b34801561031a57600080fd5b506103356004803603810190610330919061476d565b610d4d565b005b34801561034357600080fd5b5061035e6004803603810190610359919061476d565b610f2f565b005b34801561036c57600080fd5b5061038760048036038101906103829190614971565b61122f565b60405161039491906153b7565b60405180910390f35b3480156103a957600080fd5b506103c460048036038101906103bf919061499a565b61126c565b005b3480156103d257600080fd5b506103ed60048036038101906103e89190614971565b611b75565b005b3480156103fb57600080fd5b50610416600480360381019061041191906147ef565b611dcb565b005b34801561042457600080fd5b5061043f600480360381019061043a91906147ae565b612a04565b005b34801561044d57600080fd5b5061046860048036038101906104639190614708565b612b8e565b60405161047c989796959493929190615416565b60405180910390f35b34801561049157600080fd5b506104ac60048036038101906104a79190614708565b612f13565b005b3480156104ba57600080fd5b506104d560048036038101906104d09190614971565b61308e565b005b6104f160048036038101906104ec9190614971565b613202565b005b3480156104ff57600080fd5b5061051a60048036038101906105159190614971565b61365e565b6040516105319b9a99989796959493929190615779565b60405180910390f35b34801561054657600080fd5b50610561600480360381019061055c9190614a19565b6138f2565b005b34801561056f57600080fd5b5061058a60048036038101906105859190614b2b565b613be3565b60405161059791906153b7565b60405180910390f35b3480156105ac57600080fd5b506105c760048036038101906105c29190614843565b613c31565b005b3480156105d557600080fd5b506105f060048036038101906105eb9190614971565b613e65565b6040516105fd91906153d2565b60405180910390f35b34801561061257600080fd5b5061061b613f06565b60405161062891906153f4565b60405180910390f35b34801561063d57600080fd5b5061065860048036038101906106539190614971565b614141565b005b60015481565b60008054906101000a900473ffffffffffffffffffffffffffffffffffffffff1673ffffffffffffffffffffffffffffffffffffffff163373ffffffffffffffffffffffffffffffffffffffff16146106ee576040517f08c379a00000000000000000000000000000000000000000000000000000000081526004016106e59061557e565b60405180910390fd5b6003600082815260200190815260200160002060090160009054906101000a900460ff16610751576040517f08c379a0000000000000000000000000000000000000000000000000000000008152600401610748906156fe565b60405180910390fd5b60006003600083815260200190815260200160002060090160006101000a81548160ff02191690831515021790555050565b60008054906101000a900473ffffffffffffffffffffffffffffffffffffffff1681565b60008054906101000a900473ffffffffffffffffffffffffffffffffffffffff1673ffffffffffffffffffffffffffffffffffffffff163373ffffffffffffffffffffffffffffffffffffffff1614610835576040517f08c379a000000000000000000000000000000000000000000000000000000000815260040161082c9061557e565b60405180910390fd5b60005b81518110156109fe576003600083838151811061087e577f4e487b7100000000000000000000000000000000000000000000000000000000600052603260045260246000fd5b6020026020010151815260200190815260200160002060090160009054906101000a900460ff1615801561090957506000600360008484815181106108ec577f4e487b7100000000000000000000000000000000000000000000000000000000600052603260045260246000fd5b602002602001015181526020019081526020016000206000015414155b156109eb5760016003600084848151811061094d577f4e487b7100000000000000000000000000000000000000000000000000000000600052603260045260246000fd5b6020026020010151815260200190815260200160002060090160006101000a81548160ff0219169083151502179055508181815181106109b6577f4e487b7100000000000000000000000000000000000000000000000000000000600052603260045260246000fd5b60200260200101517f339a5d26292b459dbd1a911e53069f56bd3610e5ca60a312043fc90189c388bf60405160405180910390a25b80806109f690615aed565b915050610838565b5050565b6060600460008373ffffffffffffffffffffffffffffffffffffffff1673ffffffffffffffffffffffffffffffffffffffff168152602001908152602001600020805480602002602001604051908101604052809291908181526020018280548015610a8d57602002820191906000526020600020905b815481526020019060010190808311610a79575b50505050509050919050565b60046020528160005260406000208181548110610ab557600080fd5b90600052602060002001600091509150505481565b60008054906101000a900473ffffffffffffffffffffffffffffffffffffffff1673ffffffffffffffffffffffffffffffffffffffff163373ffffffffffffffffffffffffffffffffffffffff1614610b58576040517f08c379a0000000000000000000000000000000000000000000000000000000008152600401610b4f9061557e565b60405180910390fd5b6000600260008373ffffffffffffffffffffffffffffffffffffffff1673ffffffffffffffffffffffffffffffffffffffff1681526020019081526020016000206000018054610ba790615abb565b905011610be9576040517f08c379a0000000000000000000000000000000000000000000000000000000008152600401610be0906154fe565b60405180910390fd5b600260008273ffffffffffffffffffffffffffffffffffffffff1673ffffffffffffffffffffffffffffffffffffffff16815260200190815260200160002060070160009054906101000a900460ff1615610c79576040517f08c379a0000000000000000000000000000000000000000000000000000000008152600401610c709061569e565b60405180910390fd5b6001600260008373ffffffffffffffffffffffffffffffffffffffff1673ffffffffffffffffffffffffffffffffffffffff16815260200190815260200160002060070160006101000a81548160ff0219169083151502179055508073ffffffffffffffffffffffffffffffffffffffff167fa6625d2d26e786e2f473111bea4b2fcdbbf1863d883a2359989ce3a103d2972a60405160405180910390a250565b60056020528060005260406000206000915054906101000a900473ffffffffffffffffffffffffffffffffffffffff1681565b60008054906101000a900473ffffffffffffffffffffffffffffffffffffffff1673ffffffffffffffffffffffffffffffffffffffff163373ffffffffffffffffffffffffffffffffffffffff1614610ddb576040517f08c379a0000000000000000000000000000000000000000000000000000000008152600401610dd29061557e565b60405180910390fd5b60005b8151811015610f2b5760026000838381518110610e24577f4e487b7100000000000000000000000000000000000000000000000000000000600052603260045260246000fd5b602002602001015173ffffffffffffffffffffffffffffffffffffffff1673ffffffffffffffffffffffffffffffffffffffff16815260200190815260200160002060070160009054906101000a900460ff1615610f1857600060026000848481518110610ebb577f4e487b7100000000000000000000000000000000000000000000000000000000600052603260045260246000fd5b602002602001015173ffffffffffffffffffffffffffffffffffffffff1673ffffffffffffffffffffffffffffffffffffffff16815260200190815260200160002060070160006101000a81548160ff0219169083151502179055505b8080610f2390615aed565b915050610dde565b5050565b60008054906101000a900473ffffffffffffffffffffffffffffffffffffffff1673ffffffffffffffffffffffffffffffffffffffff163373ffffffffffffffffffffffffffffffffffffffff1614610fbd576040517f08c379a0000000000000000000000000000000000000000000000000000000008152600401610fb49061557e565b60405180910390fd5b60005b815181101561122b5760026000838381518110611006577f4e487b7100000000000000000000000000000000000000000000000000000000600052603260045260246000fd5b602002602001015173ffffffffffffffffffffffffffffffffffffffff1673ffffffffffffffffffffffffffffffffffffffff16815260200190815260200160002060070160009054906101000a900460ff161580156110f457506000600260008484815181106110a0577f4e487b7100000000000000000000000000000000000000000000000000000000600052603260045260246000fd5b602002602001015173ffffffffffffffffffffffffffffffffffffffff1673ffffffffffffffffffffffffffffffffffffffff16815260200190815260200160002060000180546110f090615abb565b9050115b1561121857600160026000848481518110611138577f4e487b7100000000000000000000000000000000000000000000000000000000600052603260045260246000fd5b602002602001015173ffffffffffffffffffffffffffffffffffffffff1673ffffffffffffffffffffffffffffffffffffffff16815260200190815260200160002060070160006101000a81548160ff0219169083151502179055508181815181106111cd577f4e487b7100000000000000000000000000000000000000000000000000000000600052603260045260246000fd5b602002602001015173ffffffffffffffffffffffffffffffffffffffff167fa6625d2d26e786e2f473111bea4b2fcdbbf1863d883a2359989ce3a103d2972a60405160405180910390a25b808061122390615aed565b915050610fc0565b5050565b60006005600083815260200190815260200160002060009054906101000a900473ffffffffffffffffffffffffffffffffffffffff169050919050565b3373ffffffffffffffffffffffffffffffffffffffff166005600085815260200190815260200160002060009054906101000a900473ffffffffffffffffffffffffffffffffffffffff1673ffffffffffffffffffffffffffffffffffffffff161461130d576040517f08c379a0000000000000000000000000000000000000000000000000000000008152600401611304906155de565b60405180910390fd5b6003600084815260200190815260200160002060090160009054906101000a900460ff16611370576040517f08c379a0000000000000000000000000000000000000000000000000000000008152600401611367906156fe565b60405180910390fd5b80518251146113b4576040517f08c379a00000000000000000000000000000000000000000000000000000000081526004016113ab9061573e565b60405180910390fd5b6000805b8351811015611422578381815181106113fa577f4e487b7100000000000000000000000000000000000000000000000000000000600052603260045260246000fd5b60200260200101518261140d91906159a7565b9150808061141a90615aed565b9150506113b8565b50600360008581526020019081526020016000206001015481111561147c576040517f08c379a0000000000000000000000000000000000000000000000000000000008152600401611473906155fe565b60405180910390fd5b6005600085815260200190815260200160002060006101000a81549073ffffffffffffffffffffffffffffffffffffffff02191690556114fa600460003373ffffffffffffffffffffffffffffffffffffffff1673ffffffffffffffffffffffffffffffffffffffff168152602001908152602001600020856142ec565b600460003373ffffffffffffffffffffffffffffffffffffffff1673ffffffffffffffffffffffffffffffffffffffff168152602001908152602001600020908054611547929190614455565b5060006003600086815260200190815260200160002060090160006101000a81548160ff02191690831515021790555060006003600086815260200190815260200160002060090160016101000a81548160ff02191690831515021790555060005b8351811015611b4157600160008154809291906115c590615aed565b91905055506040518061016001604052806001548152602001858381518110611617577f4e487b7100000000000000000000000000000000000000000000000000000000600052603260045260246000fd5b6020026020010151815260200160036000888152602001908152602001600020600201805461164590615abb565b80601f016020809104026020016040519081016040528092919081815260200182805461167190615abb565b80156116be5780601f10611693576101008083540402835291602001916116be565b820191906000526020600020905b8154815290600101906020018083116116a157829003601f168201915b505050505081526020016003600088815260200190815260200160002060030180546116e990615abb565b80601f016020809104026020016040519081016040528092919081815260200182805461171590615abb565b80156117625780601f1061173757610100808354040283529160200191611762565b820191906000526020600020905b81548152906001019060200180831161174557829003601f168201915b505050505081526020018483815181106117a5577f4e487b7100000000000000000000000000000000000000000000000000000000600052603260045260246000fd5b60200260200101518152602001600360008881526020019081526020016000206005015481526020016003600088815260200190815260200160002060060154815260200160036000888152602001908152602001600020600701805461180b90615abb565b80601f016020809104026020016040519081016040528092919081815260200182805461183790615abb565b80156118845780601f1061185957610100808354040283529160200191611884565b820191906000526020600020905b81548152906001019060200180831161186757829003601f168201915b505050505081526020016003600088815260200190815260200160002060080180546118af90615abb565b80601f01602080910402602001604051908101604052809291908181526020018280546118db90615abb565b80156119285780601f106118fd57610100808354040283529160200191611928565b820191906000526020600020905b81548152906001019060200180831161190b57829003601f168201915b5050505050815260200160011515815260200160001515815250600360006001548152602001908152602001600020600082015181600001556020820151816001015560408201518160020190805190602001906119879291906144a7565b5060608201518160030190805190602001906119a49291906144a7565b506080820151816004015560a0820151816005015560c0820151816006015560e08201518160070190805190602001906119df9291906144a7565b506101008201518160080190805190602001906119fd9291906144a7565b506101208201518160090160006101000a81548160ff0219169083151502179055506101408201518160090160016101000a81548160ff0219169083151502179055509050503360056000600154815260200190815260200160002060006101000a81548173ffffffffffffffffffffffffffffffffffffffff021916908373ffffffffffffffffffffffffffffffffffffffff160217905550600460003373ffffffffffffffffffffffffffffffffffffffff1673ffffffffffffffffffffffffffffffffffffffff16815260200190815260200160002060015490806001815401808255809150506001900390600052602060002001600090919091909150556001547f8a2dc6218bcbf8966abf160caeb9f176d69fb686be31491e585a4943b6138dc760405160405180910390a28080611b3990615aed565b9150506115a9565b5080600360008681526020019081526020016000206001016000828254611b6891906159fd565b9250508190555050505050565b600260003373ffffffffffffffffffffffffffffffffffffffff1673ffffffffffffffffffffffffffffffffffffffff16815260200190815260200160002060070160009054906101000a900460ff16611c04576040517f08c379a0000000000000000000000000000000000000000000000000000000008152600401611bfb906156de565b60405180910390fd5b3373ffffffffffffffffffffffffffffffffffffffff166005600083815260200190815260200160002060009054906101000a900473ffffffffffffffffffffffffffffffffffffffff1673ffffffffffffffffffffffffffffffffffffffff1614611ca5576040517f08c379a0000000000000000000000000000000000000000000000000000000008152600401611c9c906155de565b60405180910390fd5b6003600082815260200190815260200160002060090160009054906101000a900460ff16611d08576040517f08c379a0000000000000000000000000000000000000000000000000000000008152600401611cff906156fe565b60405180910390fd5b6003600082815260200190815260200160002060090160019054906101000a900460ff1615611d6c576040517f08c379a0000000000000000000000000000000000000000000000000000000008152600401611d63906154be565b60405180910390fd5b60016003600083815260200190815260200160002060090160016101000a81548160ff021916908315150217905550807ff63369a23ed0407f81e595cda9834c3728cb16037ea07fea486feeb6061334a760405160405180910390a250565b6001825111611e0f576040517f08c379a0000000000000000000000000000000000000000000000000000000008152600401611e069061553e565b60405180910390fd5b60006003600084600081518110611e4f577f4e487b7100000000000000000000000000000000000000000000000000000000600052603260045260246000fd5b602002602001015181526020019081526020016000206002018054611e7390615abb565b80601f0160208091040260200160405190810160405280929190818152602001828054611e9f90615abb565b8015611eec5780601f10611ec157610100808354040283529160200191611eec565b820191906000526020600020905b815481529060010190602001808311611ecf57829003601f168201915b5050505050905060006003600085600081518110611f33577f4e487b7100000000000000000000000000000000000000000000000000000000600052603260045260246000fd5b602002602001015181526020019081526020016000206003018054611f5790615abb565b80601f0160208091040260200160405190810160405280929190818152602001828054611f8390615abb565b8015611fd05780601f10611fa557610100808354040283529160200191611fd0565b820191906000526020600020905b815481529060010190602001808311611fb357829003601f168201915b505050505090506000805b8551811015612538573373ffffffffffffffffffffffffffffffffffffffff1660056000888481518110612038577f4e487b7100000000000000000000000000000000000000000000000000000000600052603260045260246000fd5b6020026020010151815260200190815260200160002060009054906101000a900473ffffffffffffffffffffffffffffffffffffffff1673ffffffffffffffffffffffffffffffffffffffff16146120c5576040517f08c379a00000000000000000000000000000000000000000000000000000000081526004016120bc9061563e565b60405180910390fd5b60036000878381518110612102577f4e487b7100000000000000000000000000000000000000000000000000000000600052603260045260246000fd5b6020026020010151815260200190815260200160002060090160009054906101000a900460ff16612168576040517f08c379a000000000000000000000000000000000000000000000000000000000815260040161215f906156be565b60405180910390fd5b8380519060200120600360008884815181106121ad577f4e487b7100000000000000000000000000000000000000000000000000000000600052603260045260246000fd5b602002602001015181526020019081526020016000206002016040516121d391906153a0565b60405180910390201480156122585750828051906020012060036000888481518110612228577f4e487b7100000000000000000000000000000000000000000000000000000000600052603260045260246000fd5b6020026020010151815260200190815260200160002060030160405161224e91906153a0565b6040518091039020145b612297576040517f08c379a000000000000000000000000000000000000000000000000000000000815260040161228e9061571e565b60405180910390fd5b600360008783815181106122d4577f4e487b7100000000000000000000000000000000000000000000000000000000600052603260045260246000fd5b6020026020010151815260200190815260200160002060010154826122f991906159a7565b915060056000878381518110612338577f4e487b7100000000000000000000000000000000000000000000000000000000600052603260045260246000fd5b6020026020010151815260200190815260200160002060006101000a81549073ffffffffffffffffffffffffffffffffffffffff02191690556123f9600460003373ffffffffffffffffffffffffffffffffffffffff1673ffffffffffffffffffffffffffffffffffffffff1681526020019081526020016000208783815181106123ec577f4e487b7100000000000000000000000000000000000000000000000000000000600052603260045260246000fd5b60200260200101516142ec565b600460003373ffffffffffffffffffffffffffffffffffffffff1673ffffffffffffffffffffffffffffffffffffffff168152602001908152602001600020908054612446929190614455565b50600060036000888481518110612486577f4e487b7100000000000000000000000000000000000000000000000000000000600052603260045260246000fd5b6020026020010151815260200190815260200160002060090160006101000a81548160ff0219169083151502179055506000600360008884815181106124f5577f4e487b7100000000000000000000000000000000000000000000000000000000600052603260045260246000fd5b6020026020010151815260200190815260200160002060090160016101000a81548160ff021916908315150217905550808061253090615aed565b915050611fdb565b506001600081548092919061254c90615aed565b9190505550604051806101600160405280600154815260200182815260200184815260200183815260200185815260200160036000886000815181106125bb577f4e487b7100000000000000000000000000000000000000000000000000000000600052603260045260246000fd5b602002602001015181526020019081526020016000206005015481526020016003600088600081518110612618577f4e487b7100000000000000000000000000000000000000000000000000000000600052603260045260246000fd5b602002602001015181526020019081526020016000206006015481526020016003600088600081518110612675577f4e487b7100000000000000000000000000000000000000000000000000000000600052603260045260246000fd5b60200260200101518152602001908152602001600020600701805461269990615abb565b80601f01602080910402602001604051908101604052809291908181526020018280546126c590615abb565b80156127125780601f106126e757610100808354040283529160200191612712565b820191906000526020600020905b8154815290600101906020018083116126f557829003601f168201915b50505050508152602001600360008860008151811061275a577f4e487b7100000000000000000000000000000000000000000000000000000000600052603260045260246000fd5b60200260200101518152602001908152602001600020600801805461277e90615abb565b80601f01602080910402602001604051908101604052809291908181526020018280546127aa90615abb565b80156127f75780601f106127cc576101008083540402835291602001916127f7565b820191906000526020600020905b8154815290600101906020018083116127da57829003601f168201915b5050505050815260200160011515815260200160001515815250600360006001548152602001908152602001600020600082015181600001556020820151816001015560408201518160020190805190602001906128569291906144a7565b5060608201518160030190805190602001906128739291906144a7565b506080820151816004015560a0820151816005015560c0820151816006015560e08201518160070190805190602001906128ae9291906144a7565b506101008201518160080190805190602001906128cc9291906144a7565b506101208201518160090160006101000a81548160ff0219169083151502179055506101408201518160090160016101000a81548160ff0219169083151502179055509050503360056000600154815260200190815260200160002060006101000a81548173ffffffffffffffffffffffffffffffffffffffff021916908373ffffffffffffffffffffffffffffffffffffffff160217905550600460003373ffffffffffffffffffffffffffffffffffffffff1673ffffffffffffffffffffffffffffffffffffffff16815260200190815260200160002060015490806001815401808255809150506001900390600052602060002001600090919091909150556001547f8a2dc6218bcbf8966abf160caeb9f176d69fb686be31491e585a4943b6138dc760405160405180910390a25050505050565b60008054906101000a900473ffffffffffffffffffffffffffffffffffffffff1673ffffffffffffffffffffffffffffffffffffffff163373ffffffffffffffffffffffffffffffffffffffff1614612a92576040517f08c379a0000000000000000000000000000000000000000000000000000000008152600401612a899061557e565b60405180910390fd5b60005b8151811015612b8a5760036000838381518110612adb577f4e487b7100000000000000000000000000000000000000000000000000000000600052603260045260246000fd5b6020026020010151815260200190815260200160002060090160009054906101000a900460ff1615612b7757600060036000848481518110612b46577f4e487b7100000000000000000000000000000000000000000000000000000000600052603260045260246000fd5b6020026020010151815260200190815260200160002060090160006101000a81548160ff0219169083151502179055505b8080612b8290615aed565b915050612a95565b5050565b6002602052806000526040600020600091509050806000018054612bb190615abb565b80601f0160208091040260200160405190810160405280929190818152602001828054612bdd90615abb565b8015612c2a5780601f10612bff57610100808354040283529160200191612c2a565b820191906000526020600020905b815481529060010190602001808311612c0d57829003601f168201915b505050505090806001015490806002018054612c4590615abb565b80601f0160208091040260200160405190810160405280929190818152602001828054612c7190615abb565b8015612cbe5780601f10612c9357610100808354040283529160200191612cbe565b820191906000526020600020905b815481529060010190602001808311612ca157829003601f168201915b505050505090806003018054612cd390615abb565b80601f0160208091040260200160405190810160405280929190818152602001828054612cff90615abb565b8015612d4c5780601f10612d2157610100808354040283529160200191612d4c565b820191906000526020600020905b815481529060010190602001808311612d2f57829003601f168201915b505050505090806004018054612d6190615abb565b80601f0160208091040260200160405190810160405280929190818152602001828054612d8d90615abb565b8015612dda5780601f10612daf57610100808354040283529160200191612dda565b820191906000526020600020905b815481529060010190602001808311612dbd57829003601f168201915b505050505090806005018054612def90615abb565b80601f0160208091040260200160405190810160405280929190818152602001828054612e1b90615abb565b8015612e685780601f10612e3d57610100808354040283529160200191612e68565b820191906000526020600020905b815481529060010190602001808311612e4b57829003601f168201915b505050505090806006018054612e7d90615abb565b80601f0160208091040260200160405190810160405280929190818152602001828054612ea990615abb565b8015612ef65780601f10612ecb57610100808354040283529160200191612ef6565b820191906000526020600020905b815481529060010190602001808311612ed957829003601f168201915b5050505050908060070160009054906101000a900460ff16905088565b60008054906101000a900473ffffffffffffffffffffffffffffffffffffffff1673ffffffffffffffffffffffffffffffffffffffff163373ffffffffffffffffffffffffffffffffffffffff1614612fa1576040517f08c379a0000000000000000000000000000000000000000000000000000000008152600401612f989061557e565b60405180910390fd5b600260008273ffffffffffffffffffffffffffffffffffffffff1673ffffffffffffffffffffffffffffffffffffffff16815260200190815260200160002060070160009054906101000a900460ff16613030576040517f08c379a00000000000000000000000000000000000000000000000000000000081526004016130279061551e565b60405180910390fd5b6000600260008373ffffffffffffffffffffffffffffffffffffffff1673ffffffffffffffffffffffffffffffffffffffff16815260200190815260200160002060070160006101000a81548160ff02191690831515021790555050565b3373ffffffffffffffffffffffffffffffffffffffff166005600083815260200190815260200160002060009054906101000a900473ffffffffffffffffffffffffffffffffffffffff1673ffffffffffffffffffffffffffffffffffffffff161461312f576040517f08c379a0000000000000000000000000000000000000000000000000000000008152600401613126906155de565b60405180910390fd5b600115156003600083815260200190815260200160002060090160019054906101000a900460ff16151514613199576040517f08c379a0000000000000000000000000000000000000000000000000000000008152600401613190906155be565b60405180910390fd5b60006003600083815260200190815260200160002060090160016101000a81548160ff0219169083151502179055507f1d47cb121be673e21253477ef99a2fbe53c1e9a89dc7da8b5c8b1869d9f390ce816040516131f7919061575e565b60405180910390a150565b6003600082815260200190815260200160002060090160019054906101000a900460ff16613265576040517f08c379a000000000000000000000000000000000000000000000000000000000815260040161325c906154de565b60405180910390fd5b6003600082815260200190815260200160002060090160009054906101000a900460ff166132c8576040517f08c379a00000000000000000000000000000000000000000000000000000000081526004016132bf906156fe565b60405180910390fd5b60036000828152602001908152602001600020600401543414613320576040517f08c379a00000000000000000000000000000000000000000000000000000000081526004016133179061555e565b60405180910390fd5b60006005600083815260200190815260200160002060009054906101000a900473ffffffffffffffffffffffffffffffffffffffff1690503373ffffffffffffffffffffffffffffffffffffffff168173ffffffffffffffffffffffffffffffffffffffff1614156133c7576040517f08c379a00000000000000000000000000000000000000000000000000000000081526004016133be9061559e565b60405180910390fd5b60066000838152602001908152602001600020819080600181540180825580915050600190039060005260206000200160009091909190916101000a81548173ffffffffffffffffffffffffffffffffffffffff021916908373ffffffffffffffffffffffffffffffffffffffff160217905550336005600084815260200190815260200160002060006101000a81548173ffffffffffffffffffffffffffffffffffffffff021916908373ffffffffffffffffffffffffffffffffffffffff1602179055506134d5600460008373ffffffffffffffffffffffffffffffffffffffff1673ffffffffffffffffffffffffffffffffffffffff168152602001908152602001600020836142ec565b600460008373ffffffffffffffffffffffffffffffffffffffff1673ffffffffffffffffffffffffffffffffffffffff168152602001908152602001600020908054613522929190614455565b50600460003373ffffffffffffffffffffffffffffffffffffffff1673ffffffffffffffffffffffffffffffffffffffff16815260200190815260200160002082908060018154018082558091505060019003906000526020600020016000909190919091505560006003600084815260200190815260200160002060090160016101000a81548160ff0219169083151502179055508073ffffffffffffffffffffffffffffffffffffffff166108fc349081150290604051600060405180830381858888f193505050501580156135fe573d6000803e3d6000fd5b508073ffffffffffffffffffffffffffffffffffffffff163373ffffffffffffffffffffffffffffffffffffffff16837fa8bae5dc2a2b74810a3cdb15f6d34af3ca8a5f988a624ab2b8b1cfe1fef1642a60405160405180910390a45050565b600360205280600052604060002060009150905080600001549080600101549080600201805461368d90615abb565b80601f01602080910402602001604051908101604052809291908181526020018280546136b990615abb565b80156137065780601f106136db57610100808354040283529160200191613706565b820191906000526020600020905b8154815290600101906020018083116136e957829003601f168201915b50505050509080600301805461371b90615abb565b80601f016020809104026020016040519081016040528092919081815260200182805461374790615abb565b80156137945780601f1061376957610100808354040283529160200191613794565b820191906000526020600020905b81548152906001019060200180831161377757829003601f168201915b5050505050908060040154908060050154908060060154908060070180546137bb90615abb565b80601f01602080910402602001604051908101604052809291908181526020018280546137e790615abb565b80156138345780601f1061380957610100808354040283529160200191613834565b820191906000526020600020905b81548152906001019060200180831161381757829003601f168201915b50505050509080600801805461384990615abb565b80601f016020809104026020016040519081016040528092919081815260200182805461387590615abb565b80156138c25780601f10613897576101008083540402835291602001916138c2565b820191906000526020600020905b8154815290600101906020018083116138a557829003601f168201915b5050505050908060090160009054906101000a900460ff16908060090160019054906101000a900460ff1690508b565b600260003373ffffffffffffffffffffffffffffffffffffffff1673ffffffffffffffffffffffffffffffffffffffff16815260200190815260200160002060070160009054906101000a900460ff16613981576040517f08c379a0000000000000000000000000000000000000000000000000000000008152600401613978906156de565b60405180910390fd5b6001600081548092919061399490615aed565b919050555060405180610160016040528060015481526020018981526020018881526020018781526020018681526020018581526020018481526020018381526020018281526020016000151581526020016000151581525060036000600154815260200190815260200160002060008201518160000155602082015181600101556040820151816002019080519060200190613a329291906144a7565b506060820151816003019080519060200190613a4f9291906144a7565b506080820151816004015560a0820151816005015560c0820151816006015560e0820151816007019080519060200190613a8a9291906144a7565b50610100820151816008019080519060200190613aa89291906144a7565b506101208201518160090160006101000a81548160ff0219169083151502179055506101408201518160090160016101000a81548160ff0219169083151502179055509050503360056000600154815260200190815260200160002060006101000a81548173ffffffffffffffffffffffffffffffffffffffff021916908373ffffffffffffffffffffffffffffffffffffffff160217905550600460003373ffffffffffffffffffffffffffffffffffffffff1673ffffffffffffffffffffffffffffffffffffffff16815260200190815260200160002060015490806001815401808255809150506001900390600052602060002001600090919091909150556001547f8a2dc6218bcbf8966abf160caeb9f176d69fb686be31491e585a4943b6138dc760405160405180910390a25050505050505050565b60066020528160005260406000208181548110613bff57600080fd5b906000526020600020016000915091509054906101000a900473ffffffffffffffffffffffffffffffffffffffff1681565b6000600260003373ffffffffffffffffffffffffffffffffffffffff1673ffffffffffffffffffffffffffffffffffffffff1681526020019081526020016000206000018054613c8090615abb565b905014613cc2576040517f08c379a0000000000000000000000000000000000000000000000000000000008152600401613cb99061565e565b60405180910390fd5b60405180610100016040528088815260200187815260200186815260200185815260200184815260200183815260200182815260200160001515815250600260003373ffffffffffffffffffffffffffffffffffffffff1673ffffffffffffffffffffffffffffffffffffffff1681526020019081526020016000206000820151816000019080519060200190613d5a9291906144a7565b50602082015181600101556040820151816002019080519060200190613d819291906144a7565b506060820151816003019080519060200190613d9e9291906144a7565b506080820151816004019080519060200190613dbb9291906144a7565b5060a0820151816005019080519060200190613dd89291906144a7565b5060c0820151816006019080519060200190613df59291906144a7565b5060e08201518160070160006101000a81548160ff0219169083151502179055509050503373ffffffffffffffffffffffffffffffffffffffff167f54db7a5cb4735e1aac1f53db512d3390390bb6637bd30ad4bf9fc98667d9b9b960405160405180910390a250505050505050565b606060066000838152602001908152602001600020805480602002602001604051908101604052809291908181526020018280548015613efa57602002820191906000526020600020905b8160009054906101000a900473ffffffffffffffffffffffffffffffffffffffff1673ffffffffffffffffffffffffffffffffffffffff1681526020019060010190808311613eb0575b50505050509050919050565b6060600060015467ffffffffffffffff811115613f4c577f4e487b7100000000000000000000000000000000000000000000000000000000600052604160045260246000fd5b604051908082528060200260200182016040528015613f7a5781602001602082028036833780820191505090505b509050600080600190505b600154811161401f576003600082815260200190815260200160002060090160019054906101000a900460ff161561400c5780838381518110613ff1577f4e487b7100000000000000000000000000000000000000000000000000000000600052603260045260246000fd5b602002602001018181525050818061400890615aed565b9250505b808061401790615aed565b915050613f85565b5060008167ffffffffffffffff811115614062577f4e487b7100000000000000000000000000000000000000000000000000000000600052604160045260246000fd5b6040519080825280602002602001820160405280156140905781602001602082028036833780820191505090505b50905060005b82811015614137578381815181106140d7577f4e487b7100000000000000000000000000000000000000000000000000000000600052603260045260246000fd5b6020026020010151828281518110614118577f4e487b7100000000000000000000000000000000000000000000000000000000600052603260045260246000fd5b602002602001018181525050808061412f90615aed565b915050614096565b5080935050505090565b60008054906101000a900473ffffffffffffffffffffffffffffffffffffffff1673ffffffffffffffffffffffffffffffffffffffff163373ffffffffffffffffffffffffffffffffffffffff16146141cf576040517f08c379a00000000000000000000000000000000000000000000000000000000081526004016141c69061557e565b60405180910390fd5b600060036000838152602001908152602001600020600001541415614229576040517f08c379a00000000000000000000000000000000000000000000000000000000081526004016142209061567e565b60405180910390fd5b6003600082815260200190815260200160002060090160009054906101000a900460ff161561428d576040517f08c379a00000000000000000000000000000000000000000000000000000000081526004016142849061561e565b60405180910390fd5b60016003600083815260200190815260200160002060090160006101000a81548160ff021916908315150217905550807f339a5d26292b459dbd1a911e53069f56bd3610e5ca60a312043fc90189c388bf60405160405180910390a250565b600080600090505b838054905081101561444b578284828154811061433a577f4e487b7100000000000000000000000000000000000000000000000000000000600052603260045260246000fd5b9060005260206000200154141561443857836001858054905061435d91906159fd565b81548110614394577f4e487b7100000000000000000000000000000000000000000000000000000000600052603260045260246000fd5b90600052602060002001548482815481106143d8577f4e487b7100000000000000000000000000000000000000000000000000000000600052603260045260246000fd5b90600052602060002001819055508380548061441d577f4e487b7100000000000000000000000000000000000000000000000000000000600052603160045260246000fd5b6001900381819060005260206000200160009055905561444b565b808061444390615aed565b9150506142f4565b5082905092915050565b8280548282559060005260206000209081019282156144965760005260206000209182015b8281111561449557825482559160010191906001019061447a565b5b5090506144a3919061452d565b5090565b8280546144b390615abb565b90600052602060002090601f0160209004810192826144d5576000855561451c565b82601f106144ee57805160ff191683800117855561451c565b8280016001018555821561451c579182015b8281111561451b578251825591602001919060010190614500565b5b509050614529919061452d565b5090565b5b8082111561454657600081600090555060010161452e565b5090565b600061455d61455884615871565b615840565b9050808382526020820190508285602086028201111561457c57600080fd5b60005b858110156145ac57816145928882614660565b84526020840193506020830192505060018101905061457f565b5050509392505050565b60006145c96145c48461589d565b615840565b905080838252602082019050828560208602820111156145e857600080fd5b60005b8581101561461857816145fe88826146f3565b8452602084019350602083019250506001810190506145eb565b5050509392505050565b6000614635614630846158c9565b615840565b90508281526020810184848401111561464d57600080fd5b614658848285615a79565b509392505050565b60008135905061466f81615bd4565b92915050565b600082601f83011261468657600080fd5b813561469684826020860161454a565b91505092915050565b600082601f8301126146b057600080fd5b81356146c08482602086016145b6565b91505092915050565b600082601f8301126146da57600080fd5b81356146ea848260208601614622565b91505092915050565b60008135905061470281615beb565b92915050565b60006020828403121561471a57600080fd5b600061472884828501614660565b91505092915050565b6000806040838503121561474457600080fd5b600061475285828601614660565b9250506020614763858286016146f3565b9150509250929050565b60006020828403121561477f57600080fd5b600082013567ffffffffffffffff81111561479957600080fd5b6147a584828501614675565b91505092915050565b6000602082840312156147c057600080fd5b600082013567ffffffffffffffff8111156147da57600080fd5b6147e68482850161469f565b91505092915050565b6000806040838503121561480257600080fd5b600083013567ffffffffffffffff81111561481c57600080fd5b6148288582860161469f565b9250506020614839858286016146f3565b9150509250929050565b600080600080600080600060e0888a03121561485e57600080fd5b600088013567ffffffffffffffff81111561487857600080fd5b6148848a828b016146c9565b97505060206148958a828b016146f3565b965050604088013567ffffffffffffffff8111156148b257600080fd5b6148be8a828b016146c9565b955050606088013567ffffffffffffffff8111156148db57600080fd5b6148e78a828b016146c9565b945050608088013567ffffffffffffffff81111561490457600080fd5b6149108a828b016146c9565b93505060a088013567ffffffffffffffff81111561492d57600080fd5b6149398a828b016146c9565b92505060c088013567ffffffffffffffff81111561495657600080fd5b6149628a828b016146c9565b91505092959891949750929550565b60006020828403121561498357600080fd5b6000614991848285016146f3565b91505092915050565b6000806000606084860312156149af57600080fd5b60006149bd868287016146f3565b935050602084013567ffffffffffffffff8111156149da57600080fd5b6149e68682870161469f565b925050604084013567ffffffffffffffff811115614a0357600080fd5b614a0f8682870161469f565b9150509250925092565b600080600080600080600080610100898b031215614a3657600080fd5b6000614a448b828c016146f3565b985050602089013567ffffffffffffffff811115614a6157600080fd5b614a6d8b828c016146c9565b975050604089013567ffffffffffffffff811115614a8a57600080fd5b614a968b828c016146c9565b9650506060614aa78b828c016146f3565b9550506080614ab88b828c016146f3565b94505060a0614ac98b828c016146f3565b93505060c089013567ffffffffffffffff811115614ae657600080fd5b614af28b828c016146c9565b92505060e089013567ffffffffffffffff811115614b0f57600080fd5b614b1b8b828c016146c9565b9150509295985092959890939650565b60008060408385031215614b3e57600080fd5b6000614b4c858286016146f3565b9250506020614b5d858286016146f3565b9150509250929050565b6000614b738383614b97565b60208301905092915050565b6000614b8b8383615382565b60208301905092915050565b614ba081615a31565b82525050565b614baf81615a31565b82525050565b6000614bc08261592e565b614bca8185615969565b9350614bd5836158f9565b8060005b83811015614c06578151614bed8882614b67565b9750614bf88361594f565b925050600181019050614bd9565b5085935050505092915050565b6000614c1e82615939565b614c28818561597a565b9350614c3383615909565b8060005b83811015614c64578151614c4b8882614b7f565b9750614c568361595c565b925050600181019050614c37565b5085935050505092915050565b614c7a81615a43565b82525050565b60008154614c8d81615abb565b614c97818661598b565b94506001821660008114614cb25760018114614cc357614cf6565b60ff19831686528186019350614cf6565b614ccc85615919565b60005b83811015614cee57815481890152600182019150602081019050614ccf565b838801955050505b50505092915050565b6000614d0a82615944565b614d148185615996565b9350614d24818560208601615a88565b614d2d81615bc3565b840191505092915050565b6000614d45601583615996565b91507f4c616e6420616c726561647920666f722073616c6500000000000000000000006000830152602082019050919050565b6000614d85601483615996565b91507f4c616e64206973206e6f7420666f722073616c650000000000000000000000006000830152602082019050919050565b6000614dc5601383615996565b91507f55736572206e6f742072656769737465726564000000000000000000000000006000830152602082019050919050565b6000614e05601483615996565b91507f55736572206973206e6f742076657269666965640000000000000000000000006000830152602082019050919050565b6000614e45602183615996565b91507f4174206c656173742074776f206c616e6473206d757374206265206d6572676560008301527f64000000000000000000000000000000000000000000000000000000000000006020830152604082019050919050565b6000614eab601883615996565b91507f496e636f7272656374207061796d656e7420616d6f756e7400000000000000006000830152602082019050919050565b6000614eeb602b83615996565b91507f4f6e6c79204c616e64205265676973747261722063616e20706572666f726d2060008301527f7468697320616374696f6e0000000000000000000000000000000000000000006020830152604082019050919050565b6000614f51602083615996565b91507f53656c6c65722063616e6e6f7420627579207468656972206f776e206c616e646000830152602082019050919050565b6000614f91602083615996565b91507f54686973206c616e64206973206e6f74206c697374656420666f722073616c656000830152602082019050919050565b6000614fd1602283615996565b91507f596f7520617265206e6f7420746865206f776e6572206f662074686973206c6160008301527f6e640000000000000000000000000000000000000000000000000000000000006020830152604082019050919050565b6000615037602583615996565b91507f546f74616c20617265612065786365656473206f726967696e616c206c616e6460008301527f20617265610000000000000000000000000000000000000000000000000000006020830152604082019050919050565b600061509d601583615996565b91507f4c616e6420616c726561647920766572696669656400000000000000000000006000830152602082019050919050565b60006150dd602a83615996565b91507f596f7520617265206e6f7420746865206f776e6572206f66206f6e65206f722060008301527f6d6f7265206c616e6473000000000000000000000000000000000000000000006020830152604082019050919050565b6000615143601783615996565b91507f5573657220616c726561647920726567697374657265640000000000000000006000830152602082019050919050565b6000615183600e83615996565b91507f4c616e64206e6f7420666f756e640000000000000000000000000000000000006000830152602082019050919050565b60006151c3601583615996565b91507f5573657220616c726561647920766572696669656400000000000000000000006000830152602082019050919050565b6000615203602283615996565b91507f4f6e65206f72206d6f7265206c616e647320617265206e6f742076657269666960008301527f65640000000000000000000000000000000000000000000000000000000000006020830152604082019050919050565b6000615269601183615996565b91507f55736572206e6f742076657269666965640000000000000000000000000000006000830152602082019050919050565b60006152a9601483615996565b91507f4c616e64206973206e6f742076657269666965640000000000000000000000006000830152602082019050919050565b60006152e9602883615996565b91507f4c616e6473206d75737420626520696e207468652073616d652063697479206160008301527f6e642073746174650000000000000000000000000000000000000000000000006020830152604082019050919050565b600061534f601c83615996565b91507f4d69736d6174636820696e20617265617320616e6420707269636573000000006000830152602082019050919050565b61538b81615a6f565b82525050565b61539a81615a6f565b82525050565b60006153ac8284614c80565b915081905092915050565b60006020820190506153cc6000830184614ba6565b92915050565b600060208201905081810360008301526153ec8184614bb5565b905092915050565b6000602082019050818103600083015261540e8184614c13565b905092915050565b6000610100820190508181036000830152615431818b614cff565b9050615440602083018a615391565b81810360408301526154528189614cff565b905081810360608301526154668188614cff565b9050818103608083015261547a8187614cff565b905081810360a083015261548e8186614cff565b905081810360c08301526154a28185614cff565b90506154b160e0830184614c71565b9998505050505050505050565b600060208201905081810360008301526154d781614d38565b9050919050565b600060208201905081810360008301526154f781614d78565b9050919050565b6000602082019050818103600083015261551781614db8565b9050919050565b6000602082019050818103600083015261553781614df8565b9050919050565b6000602082019050818103600083015261555781614e38565b9050919050565b6000602082019050818103600083015261557781614e9e565b9050919050565b6000602082019050818103600083015261559781614ede565b9050919050565b600060208201905081810360008301526155b781614f44565b9050919050565b600060208201905081810360008301526155d781614f84565b9050919050565b600060208201905081810360008301526155f781614fc4565b9050919050565b600060208201905081810360008301526156178161502a565b9050919050565b6000602082019050818103600083015261563781615090565b9050919050565b60006020820190508181036000830152615657816150d0565b9050919050565b6000602082019050818103600083015261567781615136565b9050919050565b6000602082019050818103600083015261569781615176565b9050919050565b600060208201905081810360008301526156b7816151b6565b9050919050565b600060208201905081810360008301526156d7816151f6565b9050919050565b600060208201905081810360008301526156f78161525c565b9050919050565b600060208201905081810360008301526157178161529c565b9050919050565b60006020820190508181036000830152615737816152dc565b9050919050565b6000602082019050818103600083015261575781615342565b9050919050565b60006020820190506157736000830184615391565b92915050565b60006101608201905061578f600083018e615391565b61579c602083018d615391565b81810360408301526157ae818c614cff565b905081810360608301526157c2818b614cff565b90506157d1608083018a615391565b6157de60a0830189615391565b6157eb60c0830188615391565b81810360e08301526157fd8187614cff565b90508181036101008301526158128186614cff565b9050615822610120830185614c71565b615830610140830184614c71565b9c9b505050505050505050505050565b6000604051905081810181811067ffffffffffffffff8211171561586757615866615b94565b5b8060405250919050565b600067ffffffffffffffff82111561588c5761588b615b94565b5b602082029050602081019050919050565b600067ffffffffffffffff8211156158b8576158b7615b94565b5b602082029050602081019050919050565b600067ffffffffffffffff8211156158e4576158e3615b94565b5b601f19601f8301169050602081019050919050565b6000819050602082019050919050565b6000819050602082019050919050565b60008190508160005260206000209050919050565b600081519050919050565b600081519050919050565b600081519050919050565b6000602082019050919050565b6000602082019050919050565b600082825260208201905092915050565b600082825260208201905092915050565b600081905092915050565b600082825260208201905092915050565b60006159b282615a6f565b91506159bd83615a6f565b9250827fffffffffffffffffffffffffffffffffffffffffffffffffffffffffffffffff038211156159f2576159f1615b36565b5b828201905092915050565b6000615a0882615a6f565b9150615a1383615a6f565b925082821015615a2657615a25615b36565b5b828203905092915050565b6000615a3c82615a4f565b9050919050565b60008115159050919050565b600073ffffffffffffffffffffffffffffffffffffffff82169050919050565b6000819050919050565b82818337600083830152505050565b60005b83811015615aa6578082015181840152602081019050615a8b565b83811115615ab5576000848401525b50505050565b60006002820490506001821680615ad357607f821691505b60208210811415615ae757615ae6615b65565b5b50919050565b6000615af882615a6f565b91507fffffffffffffffffffffffffffffffffffffffffffffffffffffffffffffffff821415615b2b57615b2a615b36565b5b600182019050919050565b7f4e487b7100000000000000000000000000000000000000000000000000000000600052601160045260246000fd5b7f4e487b7100000000000000000000000000000000000000000000000000000000600052602260045260246000fd5b7f4e487b7100000000000000000000000000000000000000000000000000000000600052604160045260246000fd5b6000601f19601f8301169050919050565b615bdd81615a31565b8114615be857600080fd5b50565b615bf481615a6f565b8114615bff57600080fd5b5056fea2646970667358221220e1598e765b5b868b6c43e44c9f6d672f7858e7f9ffbd484e3bb026d927798c1b64736f6c63430008000033",
  "immutableReferences": {},
  "source": "// SPDX-License-Identifier: MIT\r\npragma solidity ^0.8.0;\r\n\r\ncontract Land {\r\n\r\n    struct User {\r\n        string name;\r\n        uint age;\r\n        string city;\r\n        string aadharNumber;\r\n        string panNumber;\r\n        string document;\r\n        string email;\r\n        bool isVerified;\r\n    }\r\n\r\n    struct Landreg {\r\n        uint id;\r\n        uint area;\r\n        string city;\r\n        string state;\r\n        uint landPrice;\r\n        uint propertyPID;\r\n        uint physicalSurveyNumber;\r\n        string ipfsHash;\r\n        string document;\r\n        bool isVerified;\r\n        bool isForSale;\r\n    }\r\n\r\n    address public landRegistrar;\r\n    uint public landsCount;\r\n    mapping(address => User) public users;\r\n    mapping(uint => Landreg) public lands;\r\n    mapping(address => uint[]) public userOwnedLands;\r\n    mapping(uint => address) public landOwner;\r\n    mapping(uint => address[]) public landOwnershipHistory;\r\n\r\n    event UserRegistered(address indexed user);\r\n    event UserVerified(address indexed user);\r\n    event LandAdded(uint indexed landId);\r\n    event LandVerified(uint indexed landId);\r\n    event LandForSale(uint indexed landId);\r\n    event LandSold(uint indexed landId, address indexed buyer, address indexed seller);\r\n    event LandRemovedFromSale(uint landId);\r\n\r\n    modifier onlyLandRegistrar() {\r\n        require(msg.sender == landRegistrar, \"Only Land Registrar can perform this action\");\r\n        _;\r\n    }\r\n\r\n    modifier onlyVerifiedUser() {\r\n        require(users[msg.sender].isVerified, \"User not verified\");\r\n        _;\r\n    }\r\n\r\n    constructor() {\r\n        landRegistrar = msg.sender;\r\n        users[msg.sender] = User(\"Registrar\", 51, \"Bengaluru\", \"111111\", \"1212d1X\", \"Hashed\", \"registrar@gmail.com\", true);\r\n        emit UserRegistered(msg.sender);\r\n        emit UserVerified(msg.sender);\r\n    }\r\n\r\n    function registerUser(\r\n        string memory _name,\r\n        uint _age,\r\n        string memory _city,\r\n        string memory _aadharNumber,\r\n        string memory _panNumber,\r\n        string memory _document,\r\n        string memory _email\r\n    ) public {\r\n        require(bytes(users[msg.sender].name).length == 0, \"User already registered\");\r\n        users[msg.sender] = User(_name, _age, _city, _aadharNumber, _panNumber, _document, _email, false);\r\n        emit UserRegistered(msg.sender);\r\n    }\r\n\r\n    function verifyUser(address _user) public onlyLandRegistrar {\r\n        require(bytes(users[_user].name).length > 0, \"User not registered\");\r\n        require(!users[_user].isVerified, \"User already verified\");\r\n        users[_user].isVerified = true;\r\n        emit UserVerified(_user);\r\n    }\r\n\r\n    function unverifyUser(address _user) public onlyLandRegistrar {\r\n        require(users[_user].isVerified, \"User is not verified\");\r\n        users[_user].isVerified = false;\r\n    }\r\n\r\n    function unverifyLand(uint _landId) public onlyLandRegistrar {\r\n        require(lands[_landId].isVerified, \"Land is not verified\");\r\n        lands[_landId].isVerified = false;\r\n    }\r\n\r\n    function addLand(\r\n        uint _area,\r\n        string memory _city,\r\n        string memory _state,\r\n        uint _landPrice,\r\n        uint _propertyPID,\r\n        uint _physicalSurveyNumber,\r\n        string memory _ipfsHash,\r\n        string memory _document\r\n    ) public onlyVerifiedUser {\r\n        landsCount++;\r\n        lands[landsCount] = Landreg(\r\n            landsCount,\r\n            _area,\r\n            _city,\r\n            _state,\r\n            _landPrice,\r\n            _propertyPID,\r\n            _physicalSurveyNumber,\r\n            _ipfsHash,\r\n            _document,\r\n            false,\r\n            false\r\n        );\r\n        landOwner[landsCount] = msg.sender;\r\n        userOwnedLands[msg.sender].push(landsCount);\r\n        emit LandAdded(landsCount);\r\n    }\r\n\r\n    function verifyLand(uint _landId) public onlyLandRegistrar {\r\n        require(lands[_landId].id != 0, \"Land not found\");\r\n        require(!lands[_landId].isVerified, \"Land already verified\");\r\n        lands[_landId].isVerified = true;\r\n        emit LandVerified(_landId);\r\n    }\r\n\r\n    function batchVerifyUsers(address[] memory _users) public onlyLandRegistrar {\r\n        for (uint i = 0; i < _users.length; i++) {\r\n            if (!users[_users[i]].isVerified && bytes(users[_users[i]].name).length > 0) {\r\n                users[_users[i]].isVerified = true;\r\n                emit UserVerified(_users[i]);\r\n            }\r\n        }\r\n    }\r\n\r\n    function batchUnverifyUsers(address[] memory _users) public onlyLandRegistrar {\r\n        for (uint i = 0; i < _users.length; i++) {\r\n            if (users[_users[i]].isVerified) {\r\n                users[_users[i]].isVerified = false;\r\n            }\r\n        }\r\n    }\r\n\r\n    function batchVerifyLands(uint[] memory _landIds) public onlyLandRegistrar {\r\n        for (uint i = 0; i < _landIds.length; i++) {\r\n            if (!lands[_landIds[i]].isVerified && lands[_landIds[i]].id != 0) {\r\n                lands[_landIds[i]].isVerified = true;\r\n                emit LandVerified(_landIds[i]);\r\n            }\r\n        }\r\n    }\r\n\r\n    function batchUnverifyLands(uint[] memory _landIds) public onlyLandRegistrar {\r\n        for (uint i = 0; i < _landIds.length; i++) {\r\n            if (lands[_landIds[i]].isVerified) {\r\n                lands[_landIds[i]].isVerified = false;\r\n            }\r\n        }\r\n    }\r\n\r\n    function putLandForSale(uint _landId) public {\r\n        require(users[msg.sender].isVerified, \"User not verified\");\r\n        require(landOwner[_landId] == msg.sender, \"You are not the owner of this land\");\r\n        require(lands[_landId].isVerified, \"Land is not verified\");\r\n        require(!lands[_landId].isForSale, \"Land already for sale\");\r\n\r\n        lands[_landId].isForSale = true;\r\n        emit LandForSale(_landId);\r\n    }\r\n\r\n    function removeLandFromSale(uint _landId) public {\r\n        require(landOwner[_landId] == msg.sender, \"You are not the owner of this land\");\r\n        require(lands[_landId].isForSale == true, \"This land is not listed for sale\");\r\n\r\n        // Remove land from sale\r\n        lands[_landId].isForSale = false;\r\n        \r\n        emit LandRemovedFromSale(_landId);\r\n    }\r\n\r\n    function buyLand(uint _landId) public payable {\r\n        require(lands[_landId].isForSale, \"Land is not for sale\");\r\n        require(lands[_landId].isVerified, \"Land is not verified\");\r\n        require(msg.value == lands[_landId].landPrice, \"Incorrect payment amount\");\r\n\r\n        address seller = landOwner[_landId];\r\n        require(seller != msg.sender, \"Seller cannot buy their own land\");\r\n\r\n        // Record historical ownership\r\n        landOwnershipHistory[_landId].push(seller);\r\n\r\n        // Transfer ownership\r\n        landOwner[_landId] = msg.sender;\r\n\r\n        // Update user land ownership mappings\r\n        userOwnedLands[seller] = removeLandFromUser(userOwnedLands[seller], _landId);\r\n        userOwnedLands[msg.sender].push(_landId);\r\n\r\n        // Mark land as not for sale\r\n        lands[_landId].isForSale = false;\r\n\r\n        // Transfer funds to the seller\r\n        payable(seller).transfer(msg.value);\r\n\r\n        emit LandSold(_landId, msg.sender, seller);\r\n    }\r\n\r\n    function getLandsForSale() public view returns (uint[] memory) {\r\n        uint[] memory landsForSale = new uint[](landsCount);\r\n        uint counter = 0;\r\n\r\n        for (uint i = 1; i <= landsCount; i++) {\r\n            if (lands[i].isForSale) {\r\n                landsForSale[counter] = i;\r\n                counter++;\r\n            }\r\n        }\r\n\r\n        uint[] memory result = new uint[](counter);\r\n        for (uint i = 0; i < counter; i++) {\r\n            result[i] = landsForSale[i];\r\n        }\r\n\r\n        return result;\r\n    }\r\n\r\n    function getLandsOwnedByUser(address _user) public view returns (uint[] memory) {\r\n        return userOwnedLands[_user];\r\n    }\r\n\r\n    function removeLandFromUser(uint[] storage landsArray, uint _landId) internal returns (uint[] storage) {\r\n        for (uint i = 0; i < landsArray.length; i++) {\r\n            if (landsArray[i] == _landId) {\r\n                landsArray[i] = landsArray[landsArray.length - 1];\r\n                landsArray.pop();\r\n                break;\r\n            }\r\n        }\r\n        return landsArray;\r\n    }\r\n\r\n\r\n    function subdivideLand(uint _landId, uint[] memory _areas, uint[] memory _prices) public {\r\n        require(landOwner[_landId] == msg.sender, \"You are not the owner of this land\");\r\n        require(lands[_landId].isVerified, \"Land is not verified\");\r\n        require(_areas.length == _prices.length, \"Mismatch in areas and prices\");\r\n\r\n        uint totalArea = 0;\r\n        for (uint i = 0; i < _areas.length; i++) {\r\n            totalArea += _areas[i];\r\n        }\r\n        require(totalArea <= lands[_landId].area, \"Total area exceeds original land area\");\r\n\r\n        // Remove ownership of the original land\r\n        delete landOwner[_landId];\r\n        userOwnedLands[msg.sender] = removeLandFromUser(userOwnedLands[msg.sender], _landId);\r\n\r\n        // Mark the original land as unverified\r\n        lands[_landId].isVerified = false;\r\n        lands[_landId].isForSale=false;\r\n\r\n        for (uint i = 0; i < _areas.length; i++) {\r\n            landsCount++;\r\n            lands[landsCount] = Landreg(\r\n                landsCount,\r\n                _areas[i],\r\n                lands[_landId].city,\r\n                lands[_landId].state,\r\n                _prices[i],\r\n                lands[_landId].propertyPID,\r\n                lands[_landId].physicalSurveyNumber,\r\n                lands[_landId].ipfsHash,\r\n                lands[_landId].document,\r\n                true,  // Verified for new subdivided land\r\n                false\r\n            );\r\n            landOwner[landsCount] = msg.sender;\r\n            userOwnedLands[msg.sender].push(landsCount);\r\n            emit LandAdded(landsCount);\r\n        }\r\n\r\n        // Update the original land's area\r\n        lands[_landId].area -= totalArea;\r\n    }\r\n\r\n    function mergeLands(uint[] memory _landIds, uint _newLandPrice) public {\r\n        require(_landIds.length > 1, \"At least two lands must be merged\");\r\n\r\n        string memory city = lands[_landIds[0]].city;\r\n        string memory state = lands[_landIds[0]].state;\r\n        uint totalArea = 0;\r\n\r\n        for (uint i = 0; i < _landIds.length; i++) {\r\n            require(landOwner[_landIds[i]] == msg.sender, \"You are not the owner of one or more lands\");\r\n            require(lands[_landIds[i]].isVerified, \"One or more lands are not verified\");\r\n            require(\r\n                keccak256(bytes(lands[_landIds[i]].city)) == keccak256(bytes(city)) &&\r\n                keccak256(bytes(lands[_landIds[i]].state)) == keccak256(bytes(state)),\r\n                \"Lands must be in the same city and state\"\r\n            );\r\n\r\n            totalArea += lands[_landIds[i]].area;\r\n\r\n            // Remove the old land mappings\r\n            delete landOwner[_landIds[i]];\r\n            userOwnedLands[msg.sender] = removeLandFromUser(userOwnedLands[msg.sender], _landIds[i]);\r\n\r\n            // Mark the original lands as unverified\r\n            lands[_landIds[i]].isVerified = false;\r\n            lands[_landIds[i]].isForSale=false;\r\n        }\r\n\r\n        // Create a new merged land\r\n        landsCount++;\r\n        lands[landsCount] = Landreg(\r\n            landsCount,\r\n            totalArea,\r\n            city,\r\n            state,\r\n            _newLandPrice,\r\n            lands[_landIds[0]].propertyPID,\r\n            lands[_landIds[0]].physicalSurveyNumber,\r\n            lands[_landIds[0]].ipfsHash,\r\n            lands[_landIds[0]].document,\r\n            true,  // Verified for merged land\r\n            false\r\n        );\r\n\r\n        landOwner[landsCount] = msg.sender;\r\n        userOwnedLands[msg.sender].push(landsCount);\r\n        emit LandAdded(landsCount);\r\n    }\r\n\r\n    function getOwnershipHistory(uint _landId) public view returns (address[] memory) {\r\n        return landOwnershipHistory[_landId];\r\n        \r\n    }\r\n\r\n    function getCurrentOwner(uint _landId) public view returns (address) {\r\n        return landOwner[_landId];\r\n    }\r\n\r\n}",
  "sourcePath": "D:\\land\\env\\landownership\\land-smartcontract\\contracts\\Land.sol",
  "compiler": {
    "name": "solc",
    "version": "0.8.0+commit.c7dfd78e.Emscripten.clang"
  },
  "schemaVersion": "3.4.16",
  "updatedAt": "2024-12-20T19:14:47.661Z",
  "networkType": "ethereum",
  "devdoc": {
    "kind": "dev",
    "methods": {},
    "version": 1
  },
  "userdoc": {
    "kind": "user",
    "methods": {},
    "version": 1
  }
}